:100000000C9434000C943E000C943E000C943E0082
:100010000C943E000C943E000C943E000C943E0068
:100020000C943E000C943E000C943E000C943E0058
:100030000C943E000C943E000C943E000C943E0048
:100040000C943E000C943E000C943E000C943E0038
:100050000C943E000C943E000C943E000C943E0028
:100060000C943E000C943E0011241FBECFEFD8E04C
:10007000DEBFCDBF0E947D000C9482000C94000076
:100080001092C50087E08093C40088E18093C1008E
:1000900086E08093C2000895209A289A08952898AF
:1000A00025E12A95F1F7000098E080FF02C0289A28
:1000B00001C02898869525E12A95F1F70000915016
:1000C000A1F7289A8AE28A95F1F700C00895189955
:1000D000FECF2AE02A95F1F700C098E080E025E104
:1000E0002A95F1F700008695189980689150B9F724
:1000F0009AE29A95F1F700C008950E9440000E948C
:080100004C00FFCFF894FFCF83
:00000001FF
